{
  "_format": "hh-sol-artifact-1",
  "contractName": "GovernanceContract",
  "sourceName": "contracts/governance_standard/GovernanceContract.sol",
  "abi": [
    {
      "inputs": [
        {
          "internalType": "contract IVotes",
          "name": "_token",
          "type": "address"
        },
        {
          "internalType": "contract TimelockController",
          "name": "_timelock",
          "type": "address"
        },
        {
          "internalType": "uint256",
          "name": "_votingDelay",
          "type": "uint256"
        },
        {
          "internalType": "uint256",
          "name": "_votingPeriod",
          "type": "uint256"
        },
        {
          "internalType": "uint256",
          "name": "_quorumPercentage",
          "type": "uint256"
        }
      ],
      "stateMutability": "nonpayable",
      "type": "constructor"
    },
    {
      "inputs": [],
      "name": "Empty",
      "type": "error"
    },
    {
      "anonymous": false,
      "inputs": [
        {
          "indexed": false,
          "internalType": "uint256",
          "name": "proposalId",
          "type": "uint256"
        }
      ],
      "name": "ProposalCanceled",
      "type": "event"
    },
    {
      "anonymous": false,
      "inputs": [
        {
          "indexed": false,
          "internalType": "uint256",
          "name": "proposalId",
          "type": "uint256"
        },
        {
          "indexed": false,
          "internalType": "address",
          "name": "proposer",
          "type": "address"
        },
        {
          "indexed": false,
          "internalType": "address[]",
          "name": "targets",
          "type": "address[]"
        },
        {
          "indexed": false,
          "internalType": "uint256[]",
          "name": "values",
          "type": "uint256[]"
        },
        {
          "indexed": false,
          "internalType": "string[]",
          "name": "signatures",
          "type": "string[]"
        },
        {
          "indexed": false,
          "internalType": "bytes[]",
          "name": "calldatas",
          "type": "bytes[]"
        },
        {
          "indexed": false,
          "internalType": "uint256",
          "name": "startBlock",
          "type": "uint256"
        },
        {
          "indexed": false,
          "internalType": "uint256",
          "name": "endBlock",
          "type": "uint256"
        },
        {
          "indexed": false,
          "internalType": "string",
          "name": "description",
          "type": "string"
        }
      ],
      "name": "ProposalCreated",
      "type": "event"
    },
    {
      "anonymous": false,
      "inputs": [
        {
          "indexed": false,
          "internalType": "uint256",
          "name": "proposalId",
          "type": "uint256"
        }
      ],
      "name": "ProposalExecuted",
      "type": "event"
    },
    {
      "anonymous": false,
      "inputs": [
        {
          "indexed": false,
          "internalType": "uint256",
          "name": "proposalId",
          "type": "uint256"
        },
        {
          "indexed": false,
          "internalType": "uint256",
          "name": "eta",
          "type": "uint256"
        }
      ],
      "name": "ProposalQueued",
      "type": "event"
    },
    {
      "anonymous": false,
      "inputs": [
        {
          "indexed": false,
          "internalType": "uint256",
          "name": "oldProposalThreshold",
          "type": "uint256"
        },
        {
          "indexed": false,
          "internalType": "uint256",
          "name": "newProposalThreshold",
          "type": "uint256"
        }
      ],
      "name": "ProposalThresholdSet",
      "type": "event"
    },
    {
      "anonymous": false,
      "inputs": [
        {
          "indexed": false,
          "internalType": "uint256",
          "name": "oldQuorumNumerator",
          "type": "uint256"
        },
        {
          "indexed": false,
          "internalType": "uint256",
          "name": "newQuorumNumerator",
          "type": "uint256"
        }
      ],
      "name": "QuorumNumeratorUpdated",
      "type": "event"
    },
    {
      "anonymous": false,
      "inputs": [
        {
          "indexed": false,
          "internalType": "address",
          "name": "oldTimelock",
          "type": "address"
        },
        {
          "indexed": false,
          "internalType": "address",
          "name": "newTimelock",
          "type": "address"
        }
      ],
      "name": "TimelockChange",
      "type": "event"
    },
    {
      "anonymous": false,
      "inputs": [
        {
          "indexed": true,
          "internalType": "address",
          "name": "voter",
          "type": "address"
        },
        {
          "indexed": false,
          "internalType": "uint256",
          "name": "proposalId",
          "type": "uint256"
        },
        {
          "indexed": false,
          "internalType": "uint8",
          "name": "support",
          "type": "uint8"
        },
        {
          "indexed": false,
          "internalType": "uint256",
          "name": "weight",
          "type": "uint256"
        },
        {
          "indexed": false,
          "internalType": "string",
          "name": "reason",
          "type": "string"
        }
      ],
      "name": "VoteCast",
      "type": "event"
    },
    {
      "anonymous": false,
      "inputs": [
        {
          "indexed": true,
          "internalType": "address",
          "name": "voter",
          "type": "address"
        },
        {
          "indexed": false,
          "internalType": "uint256",
          "name": "proposalId",
          "type": "uint256"
        },
        {
          "indexed": false,
          "internalType": "uint8",
          "name": "support",
          "type": "uint8"
        },
        {
          "indexed": false,
          "internalType": "uint256",
          "name": "weight",
          "type": "uint256"
        },
        {
          "indexed": false,
          "internalType": "string",
          "name": "reason",
          "type": "string"
        },
        {
          "indexed": false,
          "internalType": "bytes",
          "name": "params",
          "type": "bytes"
        }
      ],
      "name": "VoteCastWithParams",
      "type": "event"
    },
    {
      "anonymous": false,
      "inputs": [
        {
          "indexed": false,
          "internalType": "uint256",
          "name": "oldVotingDelay",
          "type": "uint256"
        },
        {
          "indexed": false,
          "internalType": "uint256",
          "name": "newVotingDelay",
          "type": "uint256"
        }
      ],
      "name": "VotingDelaySet",
      "type": "event"
    },
    {
      "anonymous": false,
      "inputs": [
        {
          "indexed": false,
          "internalType": "uint256",
          "name": "oldVotingPeriod",
          "type": "uint256"
        },
        {
          "indexed": false,
          "internalType": "uint256",
          "name": "newVotingPeriod",
          "type": "uint256"
        }
      ],
      "name": "VotingPeriodSet",
      "type": "event"
    },
    {
      "inputs": [],
      "name": "BALLOT_TYPEHASH",
      "outputs": [
        {
          "internalType": "bytes32",
          "name": "",
          "type": "bytes32"
        }
      ],
      "stateMutability": "view",
      "type": "function"
    },
    {
      "inputs": [],
      "name": "COUNTING_MODE",
      "outputs": [
        {
          "internalType": "string",
          "name": "",
          "type": "string"
        }
      ],
      "stateMutability": "pure",
      "type": "function"
    },
    {
      "inputs": [],
      "name": "EXTENDED_BALLOT_TYPEHASH",
      "outputs": [
        {
          "internalType": "bytes32",
          "name": "",
          "type": "bytes32"
        }
      ],
      "stateMutability": "view",
      "type": "function"
    },
    {
      "inputs": [
        {
          "internalType": "uint256",
          "name": "proposalId",
          "type": "uint256"
        },
        {
          "internalType": "uint8",
          "name": "support",
          "type": "uint8"
        }
      ],
      "name": "castVote",
      "outputs": [
        {
          "internalType": "uint256",
          "name": "",
          "type": "uint256"
        }
      ],
      "stateMutability": "nonpayable",
      "type": "function"
    },
    {
      "inputs": [
        {
          "internalType": "uint256",
          "name": "proposalId",
          "type": "uint256"
        },
        {
          "internalType": "uint8",
          "name": "support",
          "type": "uint8"
        },
        {
          "internalType": "uint8",
          "name": "v",
          "type": "uint8"
        },
        {
          "internalType": "bytes32",
          "name": "r",
          "type": "bytes32"
        },
        {
          "internalType": "bytes32",
          "name": "s",
          "type": "bytes32"
        }
      ],
      "name": "castVoteBySig",
      "outputs": [
        {
          "internalType": "uint256",
          "name": "",
          "type": "uint256"
        }
      ],
      "stateMutability": "nonpayable",
      "type": "function"
    },
    {
      "inputs": [
        {
          "internalType": "uint256",
          "name": "proposalId",
          "type": "uint256"
        },
        {
          "internalType": "uint8",
          "name": "support",
          "type": "uint8"
        },
        {
          "internalType": "string",
          "name": "reason",
          "type": "string"
        }
      ],
      "name": "castVoteWithReason",
      "outputs": [
        {
          "internalType": "uint256",
          "name": "",
          "type": "uint256"
        }
      ],
      "stateMutability": "nonpayable",
      "type": "function"
    },
    {
      "inputs": [
        {
          "internalType": "uint256",
          "name": "proposalId",
          "type": "uint256"
        },
        {
          "internalType": "uint8",
          "name": "support",
          "type": "uint8"
        },
        {
          "internalType": "string",
          "name": "reason",
          "type": "string"
        },
        {
          "internalType": "bytes",
          "name": "params",
          "type": "bytes"
        }
      ],
      "name": "castVoteWithReasonAndParams",
      "outputs": [
        {
          "internalType": "uint256",
          "name": "",
          "type": "uint256"
        }
      ],
      "stateMutability": "nonpayable",
      "type": "function"
    },
    {
      "inputs": [
        {
          "internalType": "uint256",
          "name": "proposalId",
          "type": "uint256"
        },
        {
          "internalType": "uint8",
          "name": "support",
          "type": "uint8"
        },
        {
          "internalType": "string",
          "name": "reason",
          "type": "string"
        },
        {
          "internalType": "bytes",
          "name": "params",
          "type": "bytes"
        },
        {
          "internalType": "uint8",
          "name": "v",
          "type": "uint8"
        },
        {
          "internalType": "bytes32",
          "name": "r",
          "type": "bytes32"
        },
        {
          "internalType": "bytes32",
          "name": "s",
          "type": "bytes32"
        }
      ],
      "name": "castVoteWithReasonAndParamsBySig",
      "outputs": [
        {
          "internalType": "uint256",
          "name": "",
          "type": "uint256"
        }
      ],
      "stateMutability": "nonpayable",
      "type": "function"
    },
    {
      "inputs": [
        {
          "internalType": "address[]",
          "name": "targets",
          "type": "address[]"
        },
        {
          "internalType": "uint256[]",
          "name": "values",
          "type": "uint256[]"
        },
        {
          "internalType": "bytes[]",
          "name": "calldatas",
          "type": "bytes[]"
        },
        {
          "internalType": "bytes32",
          "name": "descriptionHash",
          "type": "bytes32"
        }
      ],
      "name": "execute",
      "outputs": [
        {
          "internalType": "uint256",
          "name": "",
          "type": "uint256"
        }
      ],
      "stateMutability": "payable",
      "type": "function"
    },
    {
      "inputs": [
        {
          "internalType": "address",
          "name": "account",
          "type": "address"
        },
        {
          "internalType": "uint256",
          "name": "blockNumber",
          "type": "uint256"
        }
      ],
      "name": "getVotes",
      "outputs": [
        {
          "internalType": "uint256",
          "name": "",
          "type": "uint256"
        }
      ],
      "stateMutability": "view",
      "type": "function"
    },
    {
      "inputs": [
        {
          "internalType": "address",
          "name": "account",
          "type": "address"
        },
        {
          "internalType": "uint256",
          "name": "blockNumber",
          "type": "uint256"
        },
        {
          "internalType": "bytes",
          "name": "params",
          "type": "bytes"
        }
      ],
      "name": "getVotesWithParams",
      "outputs": [
        {
          "internalType": "uint256",
          "name": "",
          "type": "uint256"
        }
      ],
      "stateMutability": "view",
      "type": "function"
    },
    {
      "inputs": [
        {
          "internalType": "uint256",
          "name": "proposalId",
          "type": "uint256"
        },
        {
          "internalType": "address",
          "name": "account",
          "type": "address"
        }
      ],
      "name": "hasVoted",
      "outputs": [
        {
          "internalType": "bool",
          "name": "",
          "type": "bool"
        }
      ],
      "stateMutability": "view",
      "type": "function"
    },
    {
      "inputs": [
        {
          "internalType": "address[]",
          "name": "targets",
          "type": "address[]"
        },
        {
          "internalType": "uint256[]",
          "name": "values",
          "type": "uint256[]"
        },
        {
          "internalType": "bytes[]",
          "name": "calldatas",
          "type": "bytes[]"
        },
        {
          "internalType": "bytes32",
          "name": "descriptionHash",
          "type": "bytes32"
        }
      ],
      "name": "hashProposal",
      "outputs": [
        {
          "internalType": "uint256",
          "name": "",
          "type": "uint256"
        }
      ],
      "stateMutability": "pure",
      "type": "function"
    },
    {
      "inputs": [],
      "name": "name",
      "outputs": [
        {
          "internalType": "string",
          "name": "",
          "type": "string"
        }
      ],
      "stateMutability": "view",
      "type": "function"
    },
    {
      "inputs": [
        {
          "internalType": "address",
          "name": "",
          "type": "address"
        },
        {
          "internalType": "address",
          "name": "",
          "type": "address"
        },
        {
          "internalType": "uint256[]",
          "name": "",
          "type": "uint256[]"
        },
        {
          "internalType": "uint256[]",
          "name": "",
          "type": "uint256[]"
        },
        {
          "internalType": "bytes",
          "name": "",
          "type": "bytes"
        }
      ],
      "name": "onERC1155BatchReceived",
      "outputs": [
        {
          "internalType": "bytes4",
          "name": "",
          "type": "bytes4"
        }
      ],
      "stateMutability": "nonpayable",
      "type": "function"
    },
    {
      "inputs": [
        {
          "internalType": "address",
          "name": "",
          "type": "address"
        },
        {
          "internalType": "address",
          "name": "",
          "type": "address"
        },
        {
          "internalType": "uint256",
          "name": "",
          "type": "uint256"
        },
        {
          "internalType": "uint256",
          "name": "",
          "type": "uint256"
        },
        {
          "internalType": "bytes",
          "name": "",
          "type": "bytes"
        }
      ],
      "name": "onERC1155Received",
      "outputs": [
        {
          "internalType": "bytes4",
          "name": "",
          "type": "bytes4"
        }
      ],
      "stateMutability": "nonpayable",
      "type": "function"
    },
    {
      "inputs": [
        {
          "internalType": "address",
          "name": "",
          "type": "address"
        },
        {
          "internalType": "address",
          "name": "",
          "type": "address"
        },
        {
          "internalType": "uint256",
          "name": "",
          "type": "uint256"
        },
        {
          "internalType": "bytes",
          "name": "",
          "type": "bytes"
        }
      ],
      "name": "onERC721Received",
      "outputs": [
        {
          "internalType": "bytes4",
          "name": "",
          "type": "bytes4"
        }
      ],
      "stateMutability": "nonpayable",
      "type": "function"
    },
    {
      "inputs": [
        {
          "internalType": "uint256",
          "name": "proposalId",
          "type": "uint256"
        }
      ],
      "name": "proposalDeadline",
      "outputs": [
        {
          "internalType": "uint256",
          "name": "",
          "type": "uint256"
        }
      ],
      "stateMutability": "view",
      "type": "function"
    },
    {
      "inputs": [
        {
          "internalType": "uint256",
          "name": "proposalId",
          "type": "uint256"
        }
      ],
      "name": "proposalEta",
      "outputs": [
        {
          "internalType": "uint256",
          "name": "",
          "type": "uint256"
        }
      ],
      "stateMutability": "view",
      "type": "function"
    },
    {
      "inputs": [
        {
          "internalType": "uint256",
          "name": "proposalId",
          "type": "uint256"
        }
      ],
      "name": "proposalSnapshot",
      "outputs": [
        {
          "internalType": "uint256",
          "name": "",
          "type": "uint256"
        }
      ],
      "stateMutability": "view",
      "type": "function"
    },
    {
      "inputs": [],
      "name": "proposalThreshold",
      "outputs": [
        {
          "internalType": "uint256",
          "name": "",
          "type": "uint256"
        }
      ],
      "stateMutability": "view",
      "type": "function"
    },
    {
      "inputs": [
        {
          "internalType": "uint256",
          "name": "proposalId",
          "type": "uint256"
        }
      ],
      "name": "proposalVotes",
      "outputs": [
        {
          "internalType": "uint256",
          "name": "againstVotes",
          "type": "uint256"
        },
        {
          "internalType": "uint256",
          "name": "forVotes",
          "type": "uint256"
        },
        {
          "internalType": "uint256",
          "name": "abstainVotes",
          "type": "uint256"
        }
      ],
      "stateMutability": "view",
      "type": "function"
    },
    {
      "inputs": [
        {
          "internalType": "address[]",
          "name": "targets",
          "type": "address[]"
        },
        {
          "internalType": "uint256[]",
          "name": "values",
          "type": "uint256[]"
        },
        {
          "internalType": "bytes[]",
          "name": "calldatas",
          "type": "bytes[]"
        },
        {
          "internalType": "string",
          "name": "description",
          "type": "string"
        }
      ],
      "name": "propose",
      "outputs": [
        {
          "internalType": "uint256",
          "name": "",
          "type": "uint256"
        }
      ],
      "stateMutability": "nonpayable",
      "type": "function"
    },
    {
      "inputs": [
        {
          "internalType": "address[]",
          "name": "targets",
          "type": "address[]"
        },
        {
          "internalType": "uint256[]",
          "name": "values",
          "type": "uint256[]"
        },
        {
          "internalType": "bytes[]",
          "name": "calldatas",
          "type": "bytes[]"
        },
        {
          "internalType": "bytes32",
          "name": "descriptionHash",
          "type": "bytes32"
        }
      ],
      "name": "queue",
      "outputs": [
        {
          "internalType": "uint256",
          "name": "",
          "type": "uint256"
        }
      ],
      "stateMutability": "nonpayable",
      "type": "function"
    },
    {
      "inputs": [
        {
          "internalType": "uint256",
          "name": "blockNumber",
          "type": "uint256"
        }
      ],
      "name": "quorum",
      "outputs": [
        {
          "internalType": "uint256",
          "name": "",
          "type": "uint256"
        }
      ],
      "stateMutability": "view",
      "type": "function"
    },
    {
      "inputs": [],
      "name": "quorumDenominator",
      "outputs": [
        {
          "internalType": "uint256",
          "name": "",
          "type": "uint256"
        }
      ],
      "stateMutability": "view",
      "type": "function"
    },
    {
      "inputs": [
        {
          "internalType": "uint256",
          "name": "blockNumber",
          "type": "uint256"
        }
      ],
      "name": "quorumNumerator",
      "outputs": [
        {
          "internalType": "uint256",
          "name": "",
          "type": "uint256"
        }
      ],
      "stateMutability": "view",
      "type": "function"
    },
    {
      "inputs": [],
      "name": "quorumNumerator",
      "outputs": [
        {
          "internalType": "uint256",
          "name": "",
          "type": "uint256"
        }
      ],
      "stateMutability": "view",
      "type": "function"
    },
    {
      "inputs": [
        {
          "internalType": "address",
          "name": "target",
          "type": "address"
        },
        {
          "internalType": "uint256",
          "name": "value",
          "type": "uint256"
        },
        {
          "internalType": "bytes",
          "name": "data",
          "type": "bytes"
        }
      ],
      "name": "relay",
      "outputs": [],
      "stateMutability": "payable",
      "type": "function"
    },
    {
      "inputs": [
        {
          "internalType": "uint256",
          "name": "newProposalThreshold",
          "type": "uint256"
        }
      ],
      "name": "setProposalThreshold",
      "outputs": [],
      "stateMutability": "nonpayable",
      "type": "function"
    },
    {
      "inputs": [
        {
          "internalType": "uint256",
          "name": "newVotingDelay",
          "type": "uint256"
        }
      ],
      "name": "setVotingDelay",
      "outputs": [],
      "stateMutability": "nonpayable",
      "type": "function"
    },
    {
      "inputs": [
        {
          "internalType": "uint256",
          "name": "newVotingPeriod",
          "type": "uint256"
        }
      ],
      "name": "setVotingPeriod",
      "outputs": [],
      "stateMutability": "nonpayable",
      "type": "function"
    },
    {
      "inputs": [
        {
          "internalType": "uint256",
          "name": "proposalId",
          "type": "uint256"
        }
      ],
      "name": "state",
      "outputs": [
        {
          "internalType": "enum IGovernor.ProposalState",
          "name": "",
          "type": "uint8"
        }
      ],
      "stateMutability": "view",
      "type": "function"
    },
    {
      "inputs": [
        {
          "internalType": "bytes4",
          "name": "interfaceId",
          "type": "bytes4"
        }
      ],
      "name": "supportsInterface",
      "outputs": [
        {
          "internalType": "bool",
          "name": "",
          "type": "bool"
        }
      ],
      "stateMutability": "view",
      "type": "function"
    },
    {
      "inputs": [],
      "name": "timelock",
      "outputs": [
        {
          "internalType": "address",
          "name": "",
          "type": "address"
        }
      ],
      "stateMutability": "view",
      "type": "function"
    },
    {
      "inputs": [],
      "name": "token",
      "outputs": [
        {
          "internalType": "contract IVotes",
          "name": "",
          "type": "address"
        }
      ],
      "stateMutability": "view",
      "type": "function"
    },
    {
      "inputs": [
        {
          "internalType": "uint256",
          "name": "newQuorumNumerator",
          "type": "uint256"
        }
      ],
      "name": "updateQuorumNumerator",
      "outputs": [],
      "stateMutability": "nonpayable",
      "type": "function"
    },
    {
      "inputs": [
        {
          "internalType": "contract TimelockController",
          "name": "newTimelock",
          "type": "address"
        }
      ],
      "name": "updateTimelock",
      "outputs": [],
      "stateMutability": "nonpayable",
      "type": "function"
    },
    {
      "inputs": [],
      "name": "version",
      "outputs": [
        {
          "internalType": "string",
          "name": "",
          "type": "string"
        }
      ],
      "stateMutability": "view",
      "type": "function"
    },
    {
      "inputs": [],
      "name": "votingDelay",
      "outputs": [
        {
          "internalType": "uint256",
          "name": "",
          "type": "uint256"
        }
      ],
      "stateMutability": "view",
      "type": "function"
    },
    {
      "inputs": [],
      "name": "votingPeriod",
      "outputs": [
        {
          "internalType": "uint256",
          "name": "",
          "type": "uint256"
        }
      ],
      "stateMutability": "view",
      "type": "function"
    },
    {
      "stateMutability": "payable",
      "type": "receive"
    }
  ],
  "bytecode": "0x6101606040523480156200001257600080fd5b5060405162007de438038062007de4833981810160405281019062000038919062000da9565b838186858560006040518060400160405280601281526020017f476f7665726e616e6365436f6e747261637400000000000000000000000000008152508062000086620001f360201b60201c565b60008280519060200120905060008280519060200120905060007f8b73c3c69bb8fe3d512ecc4cf759cc79239f7b179b0ffacaa9a75d522b39400f90508260e081815250508161010081815250504660a08181525050620000ef8184846200023060201b60201c565b608081815250503073ffffffffffffffffffffffffffffffffffffffff1660c08173ffffffffffffffffffffffffffffffffffffffff1660601b81525050806101208181525050505050505080600090805190602001906200015392919062000be7565b505062000166836200026c60201b60201c565b6200017782620002b360201b60201c565b62000188816200034060201b60201c565b5050508073ffffffffffffffffffffffffffffffffffffffff166101408173ffffffffffffffffffffffffffffffffffffffff1660601b8152505050620001d5816200038760201b60201c565b50620001e7816200056660201b60201c565b505050505050620012fd565b60606040518060400160405280600181526020017f3100000000000000000000000000000000000000000000000000000000000000815250905090565b600083838346306040516020016200024d95949392919062000e6e565b6040516020818303038152906040528051906020012090509392505050565b7fc565b045403dc03c2eea82b81a0465edad9e2e7fc4d97e11421c209da93d7a9360045482604051620002a192919062000ecb565b60405180910390a18060048190555050565b60008111620002f9576040517f08c379a0000000000000000000000000000000000000000000000000000000008152600401620002f09062000f7f565b60405180910390fd5b7f7e3f7f0708a84de9203036abaa450dccc85ad5ff52f78c170f3edb55cf5e8828600554826040516200032e92919062000ecb565b60405180910390a18060058190555050565b7fccb45da8d5717e6c4544694297c4ba5cf151d455c9bb0ed4fc7a38411bc05461600654826040516200037592919062000ecb565b60405180910390a18060068190555050565b620003976200060760201b60201c565b811115620003dc576040517f08c379a0000000000000000000000000000000000000000000000000000000008152600401620003d3906200103d565b60405180910390fd5b6000620003ee6200061060201b60201c565b9050600081141580156200040a57506000600960000180549050145b156200050a5760096000016040518060400160405280600063ffffffff16815260200162000443846200066660201b62001ed31760201c565b7bffffffffffffffffffffffffffffffffffffffffffffffffffffffff168152509080600181540180825580915050600190039060005260206000200160009091909190915060008201518160000160006101000a81548163ffffffff021916908363ffffffff16021790555060208201518160000160046101000a8154817bffffffffffffffffffffffffffffffffffffffffffffffffffffffff02191690837bffffffffffffffffffffffffffffffffffffffffffffffffffffffff16021790555050505b62000525826009620006d460201b62001f3e1790919060201c565b50507f0553476bf02ef2726e8ce5ced78d63e26e602e4a2257b1f559418e24b463399781836040516200055a92919062000ecb565b60405180910390a15050565b7f08f74ea46ef7894f65eabfb5e6e695de773a000b47c529ab559178069b226401600a60009054906101000a900473ffffffffffffffffffffffffffffffffffffffff1682604051620005bb9291906200105f565b60405180910390a180600a60006101000a81548173ffffffffffffffffffffffffffffffffffffffff021916908373ffffffffffffffffffffffffffffffffffffffff16021790555050565b60006064905090565b600080600960000180549050146200065d576200063960096200076460201b62001fac1760201c565b7bffffffffffffffffffffffffffffffffffffffffffffffffffffffff1662000661565b6008545b905090565b60007bffffffffffffffffffffffffffffffffffffffffffffffffffffffff8016821115620006cc576040517f08c379a0000000000000000000000000000000000000000000000000000000008152600401620006c39062001102565b60405180910390fd5b819050919050565b6000806200071784600001620006f543620007da60201b620020161760201c565b6200070b866200066660201b62001ed31760201c565b6200083060201b60201c565b817bffffffffffffffffffffffffffffffffffffffffffffffffffffffff169150807bffffffffffffffffffffffffffffffffffffffffffffffffffffffff169050915091509250929050565b6000808260000180549050905060008114620007cf576200079d8360000160018362000791919062001153565b62000bd260201b60201c565b60000160049054906101000a90047bffffffffffffffffffffffffffffffffffffffffffffffffffffffff16620007d2565b60005b915050919050565b600063ffffffff801682111562000828576040517f08c379a00000000000000000000000000000000000000000000000000000000081526004016200081f9062001204565b60405180910390fd5b819050919050565b600080600085805490509050600081111562000ae257600062000868876001846200085c919062001153565b62000bd260201b60201c565b6040518060400160405290816000820160009054906101000a900463ffffffff1663ffffffff1663ffffffff1681526020016000820160049054906101000a90047bffffffffffffffffffffffffffffffffffffffffffffffffffffffff167bffffffffffffffffffffffffffffffffffffffffffffffffffffffff167bffffffffffffffffffffffffffffffffffffffffffffffffffffffff168152505090508563ffffffff16816000015163ffffffff1611156200095f576040517f08c379a0000000000000000000000000000000000000000000000000000000008152600401620009569062001276565b60405180910390fd5b8563ffffffff16816000015163ffffffff161415620009f0578462000999886001856200098d919062001153565b62000bd260201b60201c565b60000160046101000a8154817bffffffffffffffffffffffffffffffffffffffffffffffffffffffff02191690837bffffffffffffffffffffffffffffffffffffffffffffffffffffffff16021790555062000ad0565b8660405180604001604052808863ffffffff168152602001877bffffffffffffffffffffffffffffffffffffffffffffffffffffffff168152509080600181540180825580915050600190039060005260206000200160009091909190915060008201518160000160006101000a81548163ffffffff021916908363ffffffff16021790555060208201518160000160046101000a8154817bffffffffffffffffffffffffffffffffffffffffffffffffffffffff02191690837bffffffffffffffffffffffffffffffffffffffffffffffffffffffff16021790555050505b80602001518593509350505062000bca565b8560405180604001604052808763ffffffff168152602001867bffffffffffffffffffffffffffffffffffffffffffffffffffffffff168152509080600181540180825580915050600190039060005260206000200160009091909190915060008201518160000160006101000a81548163ffffffff021916908363ffffffff16021790555060208201518160000160046101000a8154817bffffffffffffffffffffffffffffffffffffffffffffffffffffffff02191690837bffffffffffffffffffffffffffffffffffffffffffffffffffffffff160217905550505060008492509250505b935093915050565b60008260005281602060002001905092915050565b82805462000bf590620012c7565b90600052602060002090601f01602090048101928262000c19576000855562000c65565b82601f1062000c3457805160ff191683800117855562000c65565b8280016001018555821562000c65579182015b8281111562000c6457825182559160200191906001019062000c47565b5b50905062000c74919062000c78565b5090565b5b8082111562000c9357600081600090555060010162000c79565b5090565b600080fd5b600073ffffffffffffffffffffffffffffffffffffffff82169050919050565b600062000cc98262000c9c565b9050919050565b600062000cdd8262000cbc565b9050919050565b62000cef8162000cd0565b811462000cfb57600080fd5b50565b60008151905062000d0f8162000ce4565b92915050565b600062000d228262000c9c565b9050919050565b600062000d368262000d15565b9050919050565b62000d488162000d29565b811462000d5457600080fd5b50565b60008151905062000d688162000d3d565b92915050565b6000819050919050565b62000d838162000d6e565b811462000d8f57600080fd5b50565b60008151905062000da38162000d78565b92915050565b600080600080600060a0868803121562000dc85762000dc762000c97565b5b600062000dd88882890162000cfe565b955050602062000deb8882890162000d57565b945050604062000dfe8882890162000d92565b935050606062000e118882890162000d92565b925050608062000e248882890162000d92565b9150509295509295909350565b6000819050919050565b62000e468162000e31565b82525050565b62000e578162000d6e565b82525050565b62000e688162000cbc565b82525050565b600060a08201905062000e85600083018862000e3b565b62000e94602083018762000e3b565b62000ea3604083018662000e3b565b62000eb2606083018562000e4c565b62000ec1608083018462000e5d565b9695505050505050565b600060408201905062000ee2600083018562000e4c565b62000ef1602083018462000e4c565b9392505050565b600082825260208201905092915050565b7f476f7665726e6f7253657474696e67733a20766f74696e6720706572696f642060008201527f746f6f206c6f7700000000000000000000000000000000000000000000000000602082015250565b600062000f6760278362000ef8565b915062000f748262000f09565b604082019050919050565b6000602082019050818103600083015262000f9a8162000f58565b9050919050565b7f476f7665726e6f72566f74657351756f72756d4672616374696f6e3a2071756f60008201527f72756d4e756d657261746f72206f7665722071756f72756d44656e6f6d696e6160208201527f746f720000000000000000000000000000000000000000000000000000000000604082015250565b60006200102560438362000ef8565b9150620010328262000fa1565b606082019050919050565b60006020820190508181036000830152620010588162001016565b9050919050565b600060408201905062001076600083018562000e5d565b62001085602083018462000e5d565b9392505050565b7f53616665436173743a2076616c756520646f65736e27742066697420696e203260008201527f3234206269747300000000000000000000000000000000000000000000000000602082015250565b6000620010ea60278362000ef8565b9150620010f7826200108c565b604082019050919050565b600060208201905081810360008301526200111d81620010db565b9050919050565b7f4e487b7100000000000000000000000000000000000000000000000000000000600052601160045260246000fd5b6000620011608262000d6e565b91506200116d8362000d6e565b92508282101562001183576200118262001124565b5b828203905092915050565b7f53616665436173743a2076616c756520646f65736e27742066697420696e203360008201527f3220626974730000000000000000000000000000000000000000000000000000602082015250565b6000620011ec60268362000ef8565b9150620011f9826200118e565b604082019050919050565b600060208201905081810360008301526200121f81620011dd565b9050919050565b7f436865636b706f696e743a20696e76616c6964206b6579000000000000000000600082015250565b60006200125e60178362000ef8565b91506200126b8262001226565b602082019050919050565b6000602082019050818103600083015262001291816200124f565b9050919050565b7f4e487b7100000000000000000000000000000000000000000000000000000000600052602260045260246000fd5b60006002820490506001821680620012e057607f821691505b60208210811415620012f757620012f662001298565b5b50919050565b60805160a05160c05160601c60e05161010051610120516101405160601c616a786200136c60003960008181611eb101528181612d7a0152612ff001526000613661015260006136a301526000613682015260006135b70152600061360d015260006136360152616a786000f3fe60806040526004361061024a5760003560e01c80637b3c71d311610139578063c28bc2fa116100b6578063ea0217cf1161007a578063ea0217cf146109be578063eb9019d4146109e7578063ece40cc114610a24578063f23a6e6114610a4d578063f8ce560a14610a8a578063fc0c546a14610ac757610290565b8063c28bc2fa146108e4578063c59057e414610900578063d33219b41461093d578063dd4e2ba514610968578063deaaa7cc1461099357610290565b8063a890c910116100fd578063a890c910146107d9578063ab58fb8e14610802578063b58131b01461083f578063bc197c811461086a578063c01f9e37146108a757610290565b80637b3c71d3146106cc5780637d5e81e21461070957806397c3d334146107465780639a802a6d14610771578063a7713a70146107ae57610290565b80633932abb1116101c757806354fd4d501161018b57806354fd4d50146105c157806356781388146105ec5780635f398a141461062957806360c4247f1461066657806370b0f660146106a357610290565b80633932abb1146104a05780633bccf4fd146104cb5780633e4f49e6146105085780634385963214610545578063544ffc9c1461058257610290565b8063150b7a021161020e578063150b7a021461038e578063160cbed7146103cb5780632656227d146104085780632d63f693146104385780632fe3e2611461047557610290565b806301ffc9a71461029557806302a251a3146102d257806303420181146102fd57806306f3f9e61461033a57806306fdde031461036357610290565b36610290573073ffffffffffffffffffffffffffffffffffffffff1661026e610af2565b73ffffffffffffffffffffffffffffffffffffffff161461028e57600080fd5b005b600080fd5b3480156102a157600080fd5b506102bc60048036038101906102b79190614148565b610b01565b6040516102c99190614190565b60405180910390f35b3480156102de57600080fd5b506102e7610b13565b6040516102f491906141c4565b60405180910390f35b34801561030957600080fd5b50610324600480360381019061031f9190614420565b610b22565b60405161033191906141c4565b60405180910390f35b34801561034657600080fd5b50610361600480360381019061035c91906144fe565b610c07565b005b34801561036f57600080fd5b50610378610d03565b60405161038591906145b3565b60405180910390f35b34801561039a57600080fd5b506103b560048036038101906103b09190614633565b610d95565b6040516103c291906146c5565b60405180910390f35b3480156103d757600080fd5b506103f260048036038101906103ed9190614947565b610da9565b6040516103ff91906141c4565b60405180910390f35b610422600480360381019061041d9190614947565b611081565b60405161042f91906141c4565b60405180910390f35b34801561044457600080fd5b5061045f600480360381019061045a91906144fe565b6111ce565b60405161046c91906141c4565b60405180910390f35b34801561048157600080fd5b5061048a61123c565b6040516104979190614a11565b60405180910390f35b3480156104ac57600080fd5b506104b5611260565b6040516104c291906141c4565b60405180910390f35b3480156104d757600080fd5b506104f260048036038101906104ed9190614a2c565b61126f565b6040516104ff91906141c4565b60405180910390f35b34801561051457600080fd5b5061052f600480360381019061052a91906144fe565b6112f9565b60405161053c9190614b1e565b60405180910390f35b34801561055157600080fd5b5061056c60048036038101906105679190614b39565b61130b565b6040516105799190614190565b60405180910390f35b34801561058e57600080fd5b506105a960048036038101906105a491906144fe565b611376565b6040516105b893929190614b79565b60405180910390f35b3480156105cd57600080fd5b506105d66113ae565b6040516105e391906145b3565b60405180910390f35b3480156105f857600080fd5b50610613600480360381019061060e9190614bb0565b6113eb565b60405161062091906141c4565b60405180910390f35b34801561063557600080fd5b50610650600480360381019061064b9190614bf0565b61141c565b60405161065d91906141c4565b60405180910390f35b34801561067257600080fd5b5061068d600480360381019061068891906144fe565b611486565b60405161069a91906141c4565b60405180910390f35b3480156106af57600080fd5b506106ca60048036038101906106c591906144fe565b6115d3565b005b3480156106d857600080fd5b506106f360048036038101906106ee9190614c94565b6116cf565b60405161070091906141c4565b60405180910390f35b34801561071557600080fd5b50610730600480360381019061072b9190614da9565b611737565b60405161073d91906141c4565b60405180910390f35b34801561075257600080fd5b5061075b61174f565b60405161076891906141c4565b60405180910390f35b34801561077d57600080fd5b5061079860048036038101906107939190614e80565b611758565b6040516107a591906141c4565b60405180910390f35b3480156107ba57600080fd5b506107c361176e565b6040516107d091906141c4565b60405180910390f35b3480156107e557600080fd5b5061080060048036038101906107fb9190614f3f565b6117b5565b005b34801561080e57600080fd5b50610829600480360381019061082491906144fe565b6118b1565b60405161083691906141c4565b60405180910390f35b34801561084b57600080fd5b5061085461198d565b60405161086191906141c4565b60405180910390f35b34801561087657600080fd5b50610891600480360381019061088c9190614f6c565b61199c565b60405161089e91906146c5565b60405180910390f35b3480156108b357600080fd5b506108ce60048036038101906108c991906144fe565b6119b1565b6040516108db91906141c4565b60405180910390f35b6108fe60048036038101906108f99190615091565b611a1f565b005b34801561090c57600080fd5b5061092760048036038101906109229190614947565b611bad565b60405161093491906141c4565b60405180910390f35b34801561094957600080fd5b50610952611be9565b60405161095f9190615114565b60405180910390f35b34801561097457600080fd5b5061097d611c13565b60405161098a91906145b3565b60405180910390f35b34801561099f57600080fd5b506109a8611c50565b6040516109b59190614a11565b60405180910390f35b3480156109ca57600080fd5b506109e560048036038101906109e091906144fe565b611c74565b005b3480156109f357600080fd5b50610a0e6004803603810190610a09919061512f565b611d70565b604051610a1b91906141c4565b60405180910390f35b348015610a3057600080fd5b50610a4b6004803603810190610a4691906144fe565b611d8c565b005b348015610a5957600080fd5b50610a746004803603810190610a6f919061516f565b611e88565b604051610a8191906146c5565b60405180910390f35b348015610a9657600080fd5b50610ab16004803603810190610aac91906144fe565b611e9d565b604051610abe91906141c4565b60405180910390f35b348015610ad357600080fd5b50610adc611eaf565b604051610ae99190615265565b60405180910390f35b6000610afc612069565b905090565b6000610b0c82612093565b9050919050565b6000610b1d61210d565b905090565b600080610ba5610b9d7fb3b3f3b703cd84ce352197dcff232b1b5d3cfb2025ce47cf04742d0651f1af888c8c8c8c604051610b5e9291906152b0565b60405180910390208b80519060200120604051602001610b829594939291906152d8565b60405160208183030381529060405280519060200120612117565b868686612131565b9050610bf88a828b8b8b8080601f016020809104026020016040519081016040528093929190818152602001838380828437600081840152601f19601f820116905080830192505050505050508a61215c565b91505098975050505050505050565b610c0f610af2565b73ffffffffffffffffffffffffffffffffffffffff16610c2d612319565b73ffffffffffffffffffffffffffffffffffffffff1614610c83576040517f08c379a0000000000000000000000000000000000000000000000000000000008152600401610c7a90615377565b60405180910390fd5b3073ffffffffffffffffffffffffffffffffffffffff16610ca2610af2565b73ffffffffffffffffffffffffffffffffffffffff1614610cf7576000610cc7612321565b604051610cd59291906152b0565b604051809103902090505b80610ceb600261232e565b14610cf557610ce0565b505b610d008161240a565b50565b606060008054610d12906153c6565b80601f0160208091040260200160405190810160405280929190818152602001828054610d3e906153c6565b8015610d8b5780601f10610d6057610100808354040283529160200191610d8b565b820191906000526020600020905b815481529060010190602001808311610d6e57829003601f168201915b5050505050905090565b600063150b7a0260e01b9050949350505050565b600080610db886868686611bad565b905060046007811115610dce57610dcd614aa7565b5b610dd7826112f9565b6007811115610de957610de8614aa7565b5b14610e29576040517f08c379a0000000000000000000000000000000000000000000000000000000008152600401610e209061546a565b60405180910390fd5b6000600a60009054906101000a900473ffffffffffffffffffffffffffffffffffffffff1673ffffffffffffffffffffffffffffffffffffffff1663f27a0c926040518163ffffffff1660e01b815260040160206040518083038186803b158015610e9357600080fd5b505afa158015610ea7573d6000803e3d6000fd5b505050506040513d601f19601f82011682018060405250810190610ecb919061549f565b9050600a60009054906101000a900473ffffffffffffffffffffffffffffffffffffffff1673ffffffffffffffffffffffffffffffffffffffff1663b1c5f4278888886000896040518663ffffffff1660e01b8152600401610f319594939291906157a7565b60206040518083038186803b158015610f4957600080fd5b505afa158015610f5d573d6000803e3d6000fd5b505050506040513d601f19601f82011682018060405250810190610f819190615824565b600b600084815260200190815260200160002081905550600a60009054906101000a900473ffffffffffffffffffffffffffffffffffffffff1673ffffffffffffffffffffffffffffffffffffffff16638f2a0bb0888888600089876040518763ffffffff1660e01b8152600401610ffe96959493929190615851565b600060405180830381600087803b15801561101857600080fd5b505af115801561102c573d6000803e3d6000fd5b505050507f9a2e42fd6722813d69113e7d0079d3d940171428df7373df9c7f7617cfda289282824261105e91906158f6565b60405161106c92919061594c565b60405180910390a18192505050949350505050565b60008061109086868686611bad565b9050600061109d826112f9565b9050600460078111156110b3576110b2614aa7565b5b8160078111156110c6576110c5614aa7565b5b14806110f65750600560078111156110e1576110e0614aa7565b5b8160078111156110f4576110f3614aa7565b5b145b611135576040517f08c379a000000000000000000000000000000000000000000000000000000000815260040161112c9061546a565b60405180910390fd5b600180600084815260200190815260200160002060020160006101000a81548160ff0219169083151502179055507f712ae1383f79ac853f8d882153778e0260ef8f03b504e2866e0593e04d2b291f8260405161119291906141c4565b60405180910390a16111a782888888886125be565b6111b482888888886126a2565b6111c182888888886126b6565b8192505050949350505050565b600061122b600160008481526020019081526020016000206000016040518060200160405290816000820160009054906101000a900467ffffffffffffffff1667ffffffffffffffff1667ffffffffffffffff1681525050612711565b67ffffffffffffffff169050919050565b7fb3b3f3b703cd84ce352197dcff232b1b5d3cfb2025ce47cf04742d0651f1af8881565b600061126a61271f565b905090565b6000806112d06112c87f150214d74d59b7d1e90c73fc22ef3d991dd0a76b046543d4d80ab92d2a50328f89896040516020016112ad93929190615975565b60405160208183030381529060405280519060200120612117565b868686612131565b90506112ed87828860405180602001604052806000815250612729565b91505095945050505050565b600061130482612749565b9050919050565b60006007600084815260200190815260200160002060030160008373ffffffffffffffffffffffffffffffffffffffff1673ffffffffffffffffffffffffffffffffffffffff16815260200190815260200160002060009054906101000a900460ff16905092915050565b600080600080600760008681526020019081526020016000209050806000015481600101548260020154935093509350509193909250565b60606040518060400160405280600181526020017f3100000000000000000000000000000000000000000000000000000000000000815250905090565b6000806113f6612319565b905061141384828560405180602001604052806000815250612729565b91505092915050565b600080611427612319565b905061147a87828888888080601f016020809104026020016040519081016040528093929190818152602001838380828437600081840152601f19601f820116905080830192505050505050508761215c565b91505095945050505050565b600080600960000180549050905060008114156114a8576008549150506115ce565b600060096000016001836114bc91906159ac565b815481106114cd576114cc6159e0565b5b906000526020600020016040518060400160405290816000820160009054906101000a900463ffffffff1663ffffffff1663ffffffff1681526020016000820160049054906101000a90047bffffffffffffffffffffffffffffffffffffffffffffffffffffffff167bffffffffffffffffffffffffffffffffffffffffffffffffffffffff167bffffffffffffffffffffffffffffffffffffffffffffffffffffffff1681525050905083816000015163ffffffff16116115b55780602001517bffffffffffffffffffffffffffffffffffffffffffffffffffffffff16925050506115ce565b6115c984600961293b90919063ffffffff16565b925050505b919050565b6115db610af2565b73ffffffffffffffffffffffffffffffffffffffff166115f9612319565b73ffffffffffffffffffffffffffffffffffffffff161461164f576040517f08c379a000000000000000000000000000000000000000000000000000000000815260040161164690615377565b60405180910390fd5b3073ffffffffffffffffffffffffffffffffffffffff1661166e610af2565b73ffffffffffffffffffffffffffffffffffffffff16146116c3576000611693612321565b6040516116a19291906152b0565b604051809103902090505b806116b7600261232e565b146116c1576116ac565b505b6116cc81612a2a565b50565b6000806116da612319565b905061172c86828787878080601f016020809104026020016040519081016040528093929190818152602001838380828437600081840152601f19601f82011690508083019250505050505050612729565b915050949350505050565b600061174585858585612a6f565b9050949350505050565b60006064905090565b6000611765848484612d76565b90509392505050565b600080600960000180549050146117ac576117896009611fac565b7bffffffffffffffffffffffffffffffffffffffffffffffffffffffff166117b0565b6008545b905090565b6117bd610af2565b73ffffffffffffffffffffffffffffffffffffffff166117db612319565b73ffffffffffffffffffffffffffffffffffffffff1614611831576040517f08c379a000000000000000000000000000000000000000000000000000000000815260040161182890615377565b60405180910390fd5b3073ffffffffffffffffffffffffffffffffffffffff16611850610af2565b73ffffffffffffffffffffffffffffffffffffffff16146118a5576000611875612321565b6040516118839291906152b0565b604051809103902090505b80611899600261232e565b146118a35761188e565b505b6118ae81612e2c565b50565b600080600a60009054906101000a900473ffffffffffffffffffffffffffffffffffffffff1673ffffffffffffffffffffffffffffffffffffffff1663d45c4435600b6000868152602001908152602001600020546040518263ffffffff1660e01b81526004016119229190614a11565b60206040518083038186803b15801561193a57600080fd5b505afa15801561194e573d6000803e3d6000fd5b505050506040513d601f19601f82011682018060405250810190611972919061549f565b9050600181146119825780611985565b60005b915050919050565b6000611997612ecb565b905090565b600063bc197c8160e01b905095945050505050565b6000611a0e600160008481526020019081526020016000206001016040518060200160405290816000820160009054906101000a900467ffffffffffffffff1667ffffffffffffffff1667ffffffffffffffff1681525050612711565b67ffffffffffffffff169050919050565b611a27610af2565b73ffffffffffffffffffffffffffffffffffffffff16611a45612319565b73ffffffffffffffffffffffffffffffffffffffff1614611a9b576040517f08c379a0000000000000000000000000000000000000000000000000000000008152600401611a9290615377565b60405180910390fd5b3073ffffffffffffffffffffffffffffffffffffffff16611aba610af2565b73ffffffffffffffffffffffffffffffffffffffff1614611b0f576000611adf612321565b604051611aed9291906152b0565b604051809103902090505b80611b03600261232e565b14611b0d57611af8565b505b6000808573ffffffffffffffffffffffffffffffffffffffff16858585604051611b3a9291906152b0565b60006040518083038185875af1925050503d8060008114611b77576040519150601f19603f3d011682016040523d82523d6000602084013e611b7c565b606091505b5091509150611ba48282604051806060016040528060288152602001616a1b60289139612ed5565b50505050505050565b600084848484604051602001611bc69493929190615a0f565b6040516020818303038152906040528051906020012060001c9050949350505050565b6000600a60009054906101000a900473ffffffffffffffffffffffffffffffffffffffff16905090565b60606040518060400160405280602081526020017f737570706f72743d627261766f2671756f72756d3d666f722c6162737461696e815250905090565b7f150214d74d59b7d1e90c73fc22ef3d991dd0a76b046543d4d80ab92d2a50328f81565b611c7c610af2565b73ffffffffffffffffffffffffffffffffffffffff16611c9a612319565b73ffffffffffffffffffffffffffffffffffffffff1614611cf0576040517f08c379a0000000000000000000000000000000000000000000000000000000008152600401611ce790615377565b60405180910390fd5b3073ffffffffffffffffffffffffffffffffffffffff16611d0f610af2565b73ffffffffffffffffffffffffffffffffffffffff1614611d64576000611d34612321565b604051611d429291906152b0565b604051809103902090505b80611d58600261232e565b14611d6257611d4d565b505b611d6d81612ef7565b50565b6000611d848383611d7f612f7f565b612d76565b905092915050565b611d94610af2565b73ffffffffffffffffffffffffffffffffffffffff16611db2612319565b73ffffffffffffffffffffffffffffffffffffffff1614611e08576040517f08c379a0000000000000000000000000000000000000000000000000000000008152600401611dff90615377565b60405180910390fd5b3073ffffffffffffffffffffffffffffffffffffffff16611e27610af2565b73ffffffffffffffffffffffffffffffffffffffff1614611e7c576000611e4c612321565b604051611e5a9291906152b0565b604051809103902090505b80611e70600261232e565b14611e7a57611e65565b505b611e8581612f96565b50565b600063f23a6e6160e01b905095945050505050565b6000611ea882612fdb565b9050919050565b7f000000000000000000000000000000000000000000000000000000000000000081565b60007bffffffffffffffffffffffffffffffffffffffffffffffffffffffff8016821115611f36576040517f08c379a0000000000000000000000000000000000000000000000000000000008152600401611f2d90615adb565b60405180910390fd5b819050919050565b600080611f5f84600001611f5143612016565b611f5a86611ed3565b6130b2565b817bffffffffffffffffffffffffffffffffffffffffffffffffffffffff169150807bffffffffffffffffffffffffffffffffffffffffffffffffffffffff169050915091509250929050565b600080826000018054905090506000811461200b57611fda83600001600183611fd591906159ac565b613439565b60000160049054906101000a90047bffffffffffffffffffffffffffffffffffffffffffffffffffffffff1661200e565b60005b915050919050565b600063ffffffff8016821115612061576040517f08c379a000000000000000000000000000000000000000000000000000000000815260040161205890615b6d565b60405180910390fd5b819050919050565b6000600a60009054906101000a900473ffffffffffffffffffffffffffffffffffffffff16905090565b60007f6e665ced000000000000000000000000000000000000000000000000000000007bffffffffffffffffffffffffffffffffffffffffffffffffffffffff1916827bffffffffffffffffffffffffffffffffffffffffffffffffffffffff1916148061210657506121058261344e565b5b9050919050565b6000600554905090565b600061212a6121246135b3565b836136cd565b9050919050565b600080600061214287878787613700565b9150915061214f816137e3565b8192505050949350505050565b6000806001600088815260200190815260200160002090506001600781111561218857612187614aa7565b5b612191886112f9565b60078111156121a3576121a2614aa7565b5b146121e3576040517f08c379a00000000000000000000000000000000000000000000000000000000081526004016121da90615bff565b60405180910390fd5b600061224287612232846000016040518060200160405290816000820160009054906101000a900467ffffffffffffffff1667ffffffffffffffff1667ffffffffffffffff1681525050612711565b67ffffffffffffffff1686612d76565b90506122518888888488613951565b6000845114156122b4578673ffffffffffffffffffffffffffffffffffffffff167fb8e138887d0aa13bab447e82de9d5c1777041ecd21ca36ba824ff1e6c07ddda4898884896040516122a79493929190615c1f565b60405180910390a261230b565b8673ffffffffffffffffffffffffffffffffffffffff167fe2babfbac5889a709b63bb7f598b324e08bc5a4fb9ec647fb3cbc9ec07eb87128988848989604051612302959493929190615cb5565b60405180910390a25b809250505095945050505050565b600033905090565b3660008036915091509091565b600061233982613b58565b15612370576040517f3db2a12a00000000000000000000000000000000000000000000000000000000815260040160405180910390fd5b60008260000160009054906101000a9004600f0b905082600101600082600f0b600f0b815260200190815260200160002054915082600101600082600f0b600f0b815260200190815260200160002060009055600181018360000160006101000a8154816fffffffffffffffffffffffffffffffff0219169083600f0b6fffffffffffffffffffffffffffffffff16021790555050919050565b61241261174f565b811115612454576040517f08c379a000000000000000000000000000000000000000000000000000000000815260040161244b90615dae565b60405180910390fd5b600061245e61176e565b90506000811415801561247957506000600960000180549050145b1561256b5760096000016040518060400160405280600063ffffffff1681526020016124a484611ed3565b7bffffffffffffffffffffffffffffffffffffffffffffffffffffffff168152509080600181540180825580915050600190039060005260206000200160009091909190915060008201518160000160006101000a81548163ffffffff021916908363ffffffff16021790555060208201518160000160046101000a8154817bffffffffffffffffffffffffffffffffffffffffffffffffffffffff02191690837bffffffffffffffffffffffffffffffffffffffffffffffffffffffff16021790555050505b61257f826009611f3e90919063ffffffff16565b50507f0553476bf02ef2726e8ce5ced78d63e26e602e4a2257b1f559418e24b463399781836040516125b292919061594c565b60405180910390a15050565b3073ffffffffffffffffffffffffffffffffffffffff166125dd610af2565b73ffffffffffffffffffffffffffffffffffffffff161461269b5760005b8451811015612699573073ffffffffffffffffffffffffffffffffffffffff1685828151811061262e5761262d6159e0565b5b602002602001015173ffffffffffffffffffffffffffffffffffffffff16141561268857612687838281518110612668576126676159e0565b5b6020026020010151805190602001206002613b8d90919063ffffffff16565b5b8061269290615dce565b90506125fb565b505b5050505050565b6126af8585858585613c09565b5050505050565b3073ffffffffffffffffffffffffffffffffffffffff166126d5610af2565b73ffffffffffffffffffffffffffffffffffffffff161461270a576126fa6002613b58565b612709576127086002613ca7565b5b5b5050505050565b600081600001519050919050565b6000600454905090565b600061273f8585858561273a612f7f565b61215c565b9050949350505050565b60008061275583613d28565b90506004600781111561276b5761276a614aa7565b5b81600781111561277e5761277d614aa7565b5b1461278c5780915050612936565b6000600b60008581526020019081526020016000205490506000801b8114156127b9578192505050612936565b600a60009054906101000a900473ffffffffffffffffffffffffffffffffffffffff1673ffffffffffffffffffffffffffffffffffffffff16632ab0f529826040518263ffffffff1660e01b81526004016128149190614a11565b60206040518083038186803b15801561282c57600080fd5b505afa158015612840573d6000803e3d6000fd5b505050506040513d601f19601f820116820180604052508101906128649190615e43565b1561287457600792505050612936565b600a60009054906101000a900473ffffffffffffffffffffffffffffffffffffffff1673ffffffffffffffffffffffffffffffffffffffff1663584b153e826040518263ffffffff1660e01b81526004016128cf9190614a11565b60206040518083038186803b1580156128e757600080fd5b505afa1580156128fb573d6000803e3d6000fd5b505050506040513d601f19601f8201168201806040525081019061291f9190615e43565b1561292f57600592505050612936565b6002925050505b919050565b600043821061297f576040517f08c379a000000000000000000000000000000000000000000000000000000000815260040161297690615ebc565b60405180910390fd5b600061298a83612016565b905060008460000180549050905060006129aa8660000184600085613e3d565b9050600081146129fe576129cd866000016001836129c891906159ac565b613439565b60000160049054906101000a90047bffffffffffffffffffffffffffffffffffffffffffffffffffffffff16612a01565b60005b7bffffffffffffffffffffffffffffffffffffffffffffffffffffffff16935050505092915050565b7fc565b045403dc03c2eea82b81a0465edad9e2e7fc4d97e11421c209da93d7a9360045482604051612a5d92919061594c565b60405180910390a18060048190555050565b6000612a7961198d565b612a96612a84612319565b600143612a9191906159ac565b611d70565b1015612ad7576040517f08c379a0000000000000000000000000000000000000000000000000000000008152600401612ace90615f4e565b60405180910390fd5b6000612aec8686868680519060200120611bad565b90508451865114612b32576040517f08c379a0000000000000000000000000000000000000000000000000000000008152600401612b2990615fe0565b60405180910390fd5b8351865114612b76576040517f08c379a0000000000000000000000000000000000000000000000000000000008152600401612b6d90615fe0565b60405180910390fd5b6000865111612bba576040517f08c379a0000000000000000000000000000000000000000000000000000000008152600401612bb19061604c565b60405180910390fd5b6000600160008381526020019081526020016000209050612c1a816000016040518060200160405290816000820160009054906101000a900467ffffffffffffffff1667ffffffffffffffff1667ffffffffffffffff1681525050613eb0565b612c59576040517f08c379a0000000000000000000000000000000000000000000000000000000008152600401612c50906160de565b60405180910390fd5b6000612c6b612c66611260565b613eca565b612c7443613eca565b612c7e9190616112565b90506000612c92612c8d610b13565b613eca565b82612c9d9190616112565b9050612cb58284600001613f2190919063ffffffff16565b612ccb8184600101613f2190919063ffffffff16565b7f7d84a6263ae0d98d3329bd7b46bb4e8d6f98cd35a7adb45c274c8b7fd5ebd5e084612cf5612319565b8b8b8d5167ffffffffffffffff811115612d1257612d116142bf565b5b604051908082528060200260200182016040528015612d4557816020015b6060815260200190600190039081612d305790505b508c88888e604051612d5f9998979695949392919061628d565b60405180910390a183945050505050949350505050565b60007f000000000000000000000000000000000000000000000000000000000000000073ffffffffffffffffffffffffffffffffffffffff16633a46b1a885856040518363ffffffff1660e01b8152600401612dd392919061633d565b60206040518083038186803b158015612deb57600080fd5b505afa158015612dff573d6000803e3d6000fd5b505050506040513d601f19601f82011682018060405250810190612e23919061549f565b90509392505050565b7f08f74ea46ef7894f65eabfb5e6e695de773a000b47c529ab559178069b226401600a60009054906101000a900473ffffffffffffffffffffffffffffffffffffffff1682604051612e7f929190616366565b60405180910390a180600a60006101000a81548173ffffffffffffffffffffffffffffffffffffffff021916908373ffffffffffffffffffffffffffffffffffffffff16021790555050565b6000600654905090565b60608315612ee557829050612ef0565b612eef8383613f50565b5b9392505050565b60008111612f3a576040517f08c379a0000000000000000000000000000000000000000000000000000000008152600401612f3190616401565b60405180910390fd5b7f7e3f7f0708a84de9203036abaa450dccc85ad5ff52f78c170f3edb55cf5e882860055482604051612f6d92919061594c565b60405180910390a18060058190555050565b606060405180602001604052806000815250905090565b7fccb45da8d5717e6c4544694297c4ba5cf151d455c9bb0ed4fc7a38411bc0546160065482604051612fc992919061594c565b60405180910390a18060068190555050565b6000612fe561174f565b612fee83611486565b7f000000000000000000000000000000000000000000000000000000000000000073ffffffffffffffffffffffffffffffffffffffff16638e539e8c856040518263ffffffff1660e01b815260040161304791906141c4565b60206040518083038186803b15801561305f57600080fd5b505afa158015613073573d6000803e3d6000fd5b505050506040513d601f19601f82011682018060405250810190613097919061549f565b6130a19190616421565b6130ab91906164aa565b9050919050565b60008060008580549050905060008111156133495760006130df876001846130da91906159ac565b613439565b6040518060400160405290816000820160009054906101000a900463ffffffff1663ffffffff1663ffffffff1681526020016000820160049054906101000a90047bffffffffffffffffffffffffffffffffffffffffffffffffffffffff167bffffffffffffffffffffffffffffffffffffffffffffffffffffffff167bffffffffffffffffffffffffffffffffffffffffffffffffffffffff168152505090508563ffffffff16816000015163ffffffff1611156131d3576040517f08c379a00000000000000000000000000000000000000000000000000000000081526004016131ca90616527565b60405180910390fd5b8563ffffffff16816000015163ffffffff1614156132585784613202886001856131fd91906159ac565b613439565b60000160046101000a8154817bffffffffffffffffffffffffffffffffffffffffffffffffffffffff02191690837bffffffffffffffffffffffffffffffffffffffffffffffffffffffff160217905550613338565b8660405180604001604052808863ffffffff168152602001877bffffffffffffffffffffffffffffffffffffffffffffffffffffffff168152509080600181540180825580915050600190039060005260206000200160009091909190915060008201518160000160006101000a81548163ffffffff021916908363ffffffff16021790555060208201518160000160046101000a8154817bffffffffffffffffffffffffffffffffffffffffffffffffffffffff02191690837bffffffffffffffffffffffffffffffffffffffffffffffffffffffff16021790555050505b806020015185935093505050613431565b8560405180604001604052808763ffffffff168152602001867bffffffffffffffffffffffffffffffffffffffffffffffffffffffff168152509080600181540180825580915050600190039060005260206000200160009091909190915060008201518160000160006101000a81548163ffffffff021916908363ffffffff16021790555060208201518160000160046101000a8154817bffffffffffffffffffffffffffffffffffffffffffffffffffffffff02191690837bffffffffffffffffffffffffffffffffffffffffffffffffffffffff160217905550505060008492509250505b935093915050565b60008260005281602060002001905092915050565b6000639a802a6d60e01b630342018160e01b635f398a1460e01b7f79dd796f000000000000000000000000000000000000000000000000000000001818187bffffffffffffffffffffffffffffffffffffffffffffffffffffffff1916827bffffffffffffffffffffffffffffffffffffffffffffffffffffffff1916148061353457507f79dd796f000000000000000000000000000000000000000000000000000000007bffffffffffffffffffffffffffffffffffffffffffffffffffffffff1916827bffffffffffffffffffffffffffffffffffffffffffffffffffffffff1916145b8061359c57507f4e2312e0000000000000000000000000000000000000000000000000000000007bffffffffffffffffffffffffffffffffffffffffffffffffffffffff1916827bffffffffffffffffffffffffffffffffffffffffffffffffffffffff1916145b806135ac57506135ab82613fa0565b5b9050919050565b60007f000000000000000000000000000000000000000000000000000000000000000073ffffffffffffffffffffffffffffffffffffffff163073ffffffffffffffffffffffffffffffffffffffff1614801561362f57507f000000000000000000000000000000000000000000000000000000000000000046145b1561365c577f000000000000000000000000000000000000000000000000000000000000000090506136ca565b6136c77f00000000000000000000000000000000000000000000000000000000000000007f00000000000000000000000000000000000000000000000000000000000000007f000000000000000000000000000000000000000000000000000000000000000061400a565b90505b90565b600082826040516020016136e29291906165bf565b60405160208183030381529060405280519060200120905092915050565b6000807f7fffffffffffffffffffffffffffffff5d576e7357a4501ddfe92f46681b20a08360001c111561373b5760006003915091506137da565b60006001878787876040516000815260200160405260405161376094939291906165f6565b6020604051602081039080840390855afa158015613782573d6000803e3d6000fd5b505050602060405103519050600073ffffffffffffffffffffffffffffffffffffffff168173ffffffffffffffffffffffffffffffffffffffff1614156137d1576000600192509250506137da565b80600092509250505b94509492505050565b600060048111156137f7576137f6614aa7565b5b81600481111561380a57613809614aa7565b5b14156138155761394e565b6001600481111561382957613828614aa7565b5b81600481111561383c5761383b614aa7565b5b141561387d576040517f08c379a000000000000000000000000000000000000000000000000000000000815260040161387490616687565b60405180910390fd5b6002600481111561389157613890614aa7565b5b8160048111156138a4576138a3614aa7565b5b14156138e5576040517f08c379a00000000000000000000000000000000000000000000000000000000081526004016138dc906166f3565b60405180910390fd5b600360048111156138f9576138f8614aa7565b5b81600481111561390c5761390b614aa7565b5b141561394d576040517f08c379a000000000000000000000000000000000000000000000000000000000815260040161394490616785565b60405180910390fd5b5b50565b60006007600087815260200190815260200160002090508060030160008673ffffffffffffffffffffffffffffffffffffffff1673ffffffffffffffffffffffffffffffffffffffff16815260200190815260200160002060009054906101000a900460ff16156139f7576040517f08c379a00000000000000000000000000000000000000000000000000000000081526004016139ee90616817565b60405180910390fd5b60018160030160008773ffffffffffffffffffffffffffffffffffffffff1673ffffffffffffffffffffffffffffffffffffffff16815260200190815260200160002060006101000a81548160ff02191690831515021790555060006002811115613a6557613a64614aa7565b5b60ff168460ff161415613a925782816000016000828254613a8691906158f6565b92505081905550613b50565b60016002811115613aa657613aa5614aa7565b5b60ff168460ff161415613ad35782816001016000828254613ac791906158f6565b92505081905550613b4f565b600280811115613ae657613ae5614aa7565b5b60ff168460ff161415613b135782816002016000828254613b0791906158f6565b92505081905550613b4e565b6040517f08c379a0000000000000000000000000000000000000000000000000000000008152600401613b45906168a9565b60405180910390fd5b5b5b505050505050565b60008160000160009054906101000a9004600f0b600f0b8260000160109054906101000a9004600f0b600f0b13159050919050565b60008260000160109054906101000a9004600f0b90508183600101600083600f0b600f0b815260200190815260200160002081905550600181018360000160106101000a8154816fffffffffffffffffffffffffffffffff0219169083600f0b6fffffffffffffffffffffffffffffffff160217905550505050565b600a60009054906101000a900473ffffffffffffffffffffffffffffffffffffffff1673ffffffffffffffffffffffffffffffffffffffff1663e38335e5348686866000876040518763ffffffff1660e01b8152600401613c6e9594939291906157a7565b6000604051808303818588803b158015613c8757600080fd5b505af1158015613c9b573d6000803e3d6000fd5b50505050505050505050565b60008160000160006101000a8154816fffffffffffffffffffffffffffffffff0219169083600f0b6fffffffffffffffffffffffffffffffff16021790555060008160000160106101000a8154816fffffffffffffffffffffffffffffffff0219169083600f0b6fffffffffffffffffffffffffffffffff16021790555050565b6000806001600084815260200190815260200160002090508060020160009054906101000a900460ff1615613d61576007915050613e38565b8060020160019054906101000a900460ff1615613d82576002915050613e38565b6000613d8d846111ce565b90506000811415613dd3576040517f08c379a0000000000000000000000000000000000000000000000000000000008152600401613dca90616915565b60405180910390fd5b438110613de557600092505050613e38565b6000613df0856119b1565b9050438110613e055760019350505050613e38565b613e0e85614044565b8015613e1f5750613e1e8561408b565b5b15613e305760049350505050613e38565b600393505050505b919050565b60005b81831015613ea5576000613e5484846140b6565b90508463ffffffff16613e678783613439565b60000160009054906101000a900463ffffffff1663ffffffff161115613e8f57809250613e9f565b600181613e9c91906158f6565b93505b50613e40565b819050949350505050565b600080826000015167ffffffffffffffff16149050919050565b600067ffffffffffffffff8016821115613f19576040517f08c379a0000000000000000000000000000000000000000000000000000000008152600401613f10906169a7565b60405180910390fd5b819050919050565b808260000160006101000a81548167ffffffffffffffff021916908367ffffffffffffffff1602179055505050565b600082511115613f635781518083602001fd5b806040517f08c379a0000000000000000000000000000000000000000000000000000000008152600401613f9791906145b3565b60405180910390fd5b60007f01ffc9a7000000000000000000000000000000000000000000000000000000007bffffffffffffffffffffffffffffffffffffffffffffffffffffffff1916827bffffffffffffffffffffffffffffffffffffffffffffffffffffffff1916149050919050565b600083838346306040516020016140259594939291906169c7565b6040516020818303038152906040528051906020012090509392505050565b6000806007600084815260200190815260200160002090508060020154816001015461407091906158f6565b61408161407c856111ce565b611e9d565b1115915050919050565b6000806007600084815260200190815260200160002090508060000154816001015411915050919050565b600060028284186140c791906164aa565b8284166140d491906158f6565b905092915050565b6000604051905090565b600080fd5b600080fd5b60007fffffffff0000000000000000000000000000000000000000000000000000000082169050919050565b614125816140f0565b811461413057600080fd5b50565b6000813590506141428161411c565b92915050565b60006020828403121561415e5761415d6140e6565b5b600061416c84828501614133565b91505092915050565b60008115159050919050565b61418a81614175565b82525050565b60006020820190506141a56000830184614181565b92915050565b6000819050919050565b6141be816141ab565b82525050565b60006020820190506141d960008301846141b5565b92915050565b6141e8816141ab565b81146141f357600080fd5b50565b600081359050614205816141df565b92915050565b600060ff82169050919050565b6142218161420b565b811461422c57600080fd5b50565b60008135905061423e81614218565b92915050565b600080fd5b600080fd5b600080fd5b60008083601f84011261426957614268614244565b5b8235905067ffffffffffffffff81111561428657614285614249565b5b6020830191508360018202830111156142a2576142a161424e565b5b9250929050565b600080fd5b6000601f19601f8301169050919050565b7f4e487b7100000000000000000000000000000000000000000000000000000000600052604160045260246000fd5b6142f7826142ae565b810181811067ffffffffffffffff82111715614316576143156142bf565b5b80604052505050565b60006143296140dc565b905061433582826142ee565b919050565b600067ffffffffffffffff821115614355576143546142bf565b5b61435e826142ae565b9050602081019050919050565b82818337600083830152505050565b600061438d6143888461433a565b61431f565b9050828152602081018484840111156143a9576143a86142a9565b5b6143b484828561436b565b509392505050565b600082601f8301126143d1576143d0614244565b5b81356143e184826020860161437a565b91505092915050565b6000819050919050565b6143fd816143ea565b811461440857600080fd5b50565b60008135905061441a816143f4565b92915050565b60008060008060008060008060e0898b0312156144405761443f6140e6565b5b600061444e8b828c016141f6565b985050602061445f8b828c0161422f565b975050604089013567ffffffffffffffff8111156144805761447f6140eb565b5b61448c8b828c01614253565b9650965050606089013567ffffffffffffffff8111156144af576144ae6140eb565b5b6144bb8b828c016143bc565b94505060806144cc8b828c0161422f565b93505060a06144dd8b828c0161440b565b92505060c06144ee8b828c0161440b565b9150509295985092959890939650565b600060208284031215614514576145136140e6565b5b6000614522848285016141f6565b91505092915050565b600081519050919050565b600082825260208201905092915050565b60005b8381101561456557808201518184015260208101905061454a565b83811115614574576000848401525b50505050565b60006145858261452b565b61458f8185614536565b935061459f818560208601614547565b6145a8816142ae565b840191505092915050565b600060208201905081810360008301526145cd818461457a565b905092915050565b600073ffffffffffffffffffffffffffffffffffffffff82169050919050565b6000614600826145d5565b9050919050565b614610816145f5565b811461461b57600080fd5b50565b60008135905061462d81614607565b92915050565b6000806000806080858703121561464d5761464c6140e6565b5b600061465b8782880161461e565b945050602061466c8782880161461e565b935050604061467d878288016141f6565b925050606085013567ffffffffffffffff81111561469e5761469d6140eb565b5b6146aa878288016143bc565b91505092959194509250565b6146bf816140f0565b82525050565b60006020820190506146da60008301846146b6565b92915050565b600067ffffffffffffffff8211156146fb576146fa6142bf565b5b602082029050602081019050919050565b600061471f61471a846146e0565b61431f565b905080838252602082019050602084028301858111156147425761474161424e565b5b835b8181101561476b5780614757888261461e565b845260208401935050602081019050614744565b5050509392505050565b600082601f83011261478a57614789614244565b5b813561479a84826020860161470c565b91505092915050565b600067ffffffffffffffff8211156147be576147bd6142bf565b5b602082029050602081019050919050565b60006147e26147dd846147a3565b61431f565b905080838252602082019050602084028301858111156148055761480461424e565b5b835b8181101561482e578061481a88826141f6565b845260208401935050602081019050614807565b5050509392505050565b600082601f83011261484d5761484c614244565b5b813561485d8482602086016147cf565b91505092915050565b600067ffffffffffffffff821115614881576148806142bf565b5b602082029050602081019050919050565b60006148a56148a084614866565b61431f565b905080838252602082019050602084028301858111156148c8576148c761424e565b5b835b8181101561490f57803567ffffffffffffffff8111156148ed576148ec614244565b5b8086016148fa89826143bc565b855260208501945050506020810190506148ca565b5050509392505050565b600082601f83011261492e5761492d614244565b5b813561493e848260208601614892565b91505092915050565b60008060008060808587031215614961576149606140e6565b5b600085013567ffffffffffffffff81111561497f5761497e6140eb565b5b61498b87828801614775565b945050602085013567ffffffffffffffff8111156149ac576149ab6140eb565b5b6149b887828801614838565b935050604085013567ffffffffffffffff8111156149d9576149d86140eb565b5b6149e587828801614919565b92505060606149f68782880161440b565b91505092959194509250565b614a0b816143ea565b82525050565b6000602082019050614a266000830184614a02565b92915050565b600080600080600060a08688031215614a4857614a476140e6565b5b6000614a56888289016141f6565b9550506020614a678882890161422f565b9450506040614a788882890161422f565b9350506060614a898882890161440b565b9250506080614a9a8882890161440b565b9150509295509295909350565b7f4e487b7100000000000000000000000000000000000000000000000000000000600052602160045260246000fd5b60088110614ae757614ae6614aa7565b5b50565b6000819050614af882614ad6565b919050565b6000614b0882614aea565b9050919050565b614b1881614afd565b82525050565b6000602082019050614b336000830184614b0f565b92915050565b60008060408385031215614b5057614b4f6140e6565b5b6000614b5e858286016141f6565b9250506020614b6f8582860161461e565b9150509250929050565b6000606082019050614b8e60008301866141b5565b614b9b60208301856141b5565b614ba860408301846141b5565b949350505050565b60008060408385031215614bc757614bc66140e6565b5b6000614bd5858286016141f6565b9250506020614be68582860161422f565b9150509250929050565b600080600080600060808688031215614c0c57614c0b6140e6565b5b6000614c1a888289016141f6565b9550506020614c2b8882890161422f565b945050604086013567ffffffffffffffff811115614c4c57614c4b6140eb565b5b614c5888828901614253565b9350935050606086013567ffffffffffffffff811115614c7b57614c7a6140eb565b5b614c87888289016143bc565b9150509295509295909350565b60008060008060608587031215614cae57614cad6140e6565b5b6000614cbc878288016141f6565b9450506020614ccd8782880161422f565b935050604085013567ffffffffffffffff811115614cee57614ced6140eb565b5b614cfa87828801614253565b925092505092959194509250565b600067ffffffffffffffff821115614d2357614d226142bf565b5b614d2c826142ae565b9050602081019050919050565b6000614d4c614d4784614d08565b61431f565b905082815260208101848484011115614d6857614d676142a9565b5b614d7384828561436b565b509392505050565b600082601f830112614d9057614d8f614244565b5b8135614da0848260208601614d39565b91505092915050565b60008060008060808587031215614dc357614dc26140e6565b5b600085013567ffffffffffffffff811115614de157614de06140eb565b5b614ded87828801614775565b945050602085013567ffffffffffffffff811115614e0e57614e0d6140eb565b5b614e1a87828801614838565b935050604085013567ffffffffffffffff811115614e3b57614e3a6140eb565b5b614e4787828801614919565b925050606085013567ffffffffffffffff811115614e6857614e676140eb565b5b614e7487828801614d7b565b91505092959194509250565b600080600060608486031215614e9957614e986140e6565b5b6000614ea78682870161461e565b9350506020614eb8868287016141f6565b925050604084013567ffffffffffffffff811115614ed957614ed86140eb565b5b614ee5868287016143bc565b9150509250925092565b6000614efa826145d5565b9050919050565b6000614f0c82614eef565b9050919050565b614f1c81614f01565b8114614f2757600080fd5b50565b600081359050614f3981614f13565b92915050565b600060208284031215614f5557614f546140e6565b5b6000614f6384828501614f2a565b91505092915050565b600080600080600060a08688031215614f8857614f876140e6565b5b6000614f968882890161461e565b9550506020614fa78882890161461e565b945050604086013567ffffffffffffffff811115614fc857614fc76140eb565b5b614fd488828901614838565b935050606086013567ffffffffffffffff811115614ff557614ff46140eb565b5b61500188828901614838565b925050608086013567ffffffffffffffff811115615022576150216140eb565b5b61502e888289016143bc565b9150509295509295909350565b60008083601f84011261505157615050614244565b5b8235905067ffffffffffffffff81111561506e5761506d614249565b5b60208301915083600182028301111561508a5761508961424e565b5b9250929050565b600080600080606085870312156150ab576150aa6140e6565b5b60006150b98782880161461e565b94505060206150ca878288016141f6565b935050604085013567ffffffffffffffff8111156150eb576150ea6140eb565b5b6150f78782880161503b565b925092505092959194509250565b61510e816145f5565b82525050565b60006020820190506151296000830184615105565b92915050565b60008060408385031215615146576151456140e6565b5b60006151548582860161461e565b9250506020615165858286016141f6565b9150509250929050565b600080600080600060a0868803121561518b5761518a6140e6565b5b60006151998882890161461e565b95505060206151aa8882890161461e565b94505060406151bb888289016141f6565b93505060606151cc888289016141f6565b925050608086013567ffffffffffffffff8111156151ed576151ec6140eb565b5b6151f9888289016143bc565b9150509295509295909350565b6000819050919050565b600061522b615226615221846145d5565b615206565b6145d5565b9050919050565b600061523d82615210565b9050919050565b600061524f82615232565b9050919050565b61525f81615244565b82525050565b600060208201905061527a6000830184615256565b92915050565b600081905092915050565b60006152978385615280565b93506152a483858461436b565b82840190509392505050565b60006152bd82848661528b565b91508190509392505050565b6152d28161420b565b82525050565b600060a0820190506152ed6000830188614a02565b6152fa60208301876141b5565b61530760408301866152c9565b6153146060830185614a02565b6153216080830184614a02565b9695505050505050565b7f476f7665726e6f723a206f6e6c79476f7665726e616e63650000000000000000600082015250565b6000615361601883614536565b915061536c8261532b565b602082019050919050565b6000602082019050818103600083015261539081615354565b9050919050565b7f4e487b7100000000000000000000000000000000000000000000000000000000600052602260045260246000fd5b600060028204905060018216806153de57607f821691505b602082108114156153f2576153f1615397565b5b50919050565b7f476f7665726e6f723a2070726f706f73616c206e6f742073756363657373667560008201527f6c00000000000000000000000000000000000000000000000000000000000000602082015250565b6000615454602183614536565b915061545f826153f8565b604082019050919050565b6000602082019050818103600083015261548381615447565b9050919050565b600081519050615499816141df565b92915050565b6000602082840312156154b5576154b46140e6565b5b60006154c38482850161548a565b91505092915050565b600081519050919050565b600082825260208201905092915050565b6000819050602082019050919050565b615501816145f5565b82525050565b600061551383836154f8565b60208301905092915050565b6000602082019050919050565b6000615537826154cc565b61554181856154d7565b935061554c836154e8565b8060005b8381101561557d5781516155648882615507565b975061556f8361551f565b925050600181019050615550565b5085935050505092915050565b600081519050919050565b600082825260208201905092915050565b6000819050602082019050919050565b6155bf816141ab565b82525050565b60006155d183836155b6565b60208301905092915050565b6000602082019050919050565b60006155f58261558a565b6155ff8185615595565b935061560a836155a6565b8060005b8381101561563b57815161562288826155c5565b975061562d836155dd565b92505060018101905061560e565b5085935050505092915050565b600081519050919050565b600082825260208201905092915050565b6000819050602082019050919050565b600081519050919050565b600082825260208201905092915050565b600061569b82615674565b6156a5818561567f565b93506156b5818560208601614547565b6156be816142ae565b840191505092915050565b60006156d58383615690565b905092915050565b6000602082019050919050565b60006156f582615648565b6156ff8185615653565b93508360208202850161571185615664565b8060005b8581101561574d578484038952815161572e85826156c9565b9450615739836156dd565b925060208a01995050600181019050615715565b50829750879550505050505092915050565b6000819050919050565b60008160001b9050919050565b600061579161578c6157878461575f565b615769565b6143ea565b9050919050565b6157a181615776565b82525050565b600060a08201905081810360008301526157c1818861552c565b905081810360208301526157d581876155ea565b905081810360408301526157e981866156ea565b90506157f86060830185615798565b6158056080830184614a02565b9695505050505050565b60008151905061581e816143f4565b92915050565b60006020828403121561583a576158396140e6565b5b60006158488482850161580f565b91505092915050565b600060c082019050818103600083015261586b818961552c565b9050818103602083015261587f81886155ea565b9050818103604083015261589381876156ea565b90506158a26060830186615798565b6158af6080830185614a02565b6158bc60a08301846141b5565b979650505050505050565b7f4e487b7100000000000000000000000000000000000000000000000000000000600052601160045260246000fd5b6000615901826141ab565b915061590c836141ab565b9250827fffffffffffffffffffffffffffffffffffffffffffffffffffffffffffffffff03821115615941576159406158c7565b5b828201905092915050565b600060408201905061596160008301856141b5565b61596e60208301846141b5565b9392505050565b600060608201905061598a6000830186614a02565b61599760208301856141b5565b6159a460408301846152c9565b949350505050565b60006159b7826141ab565b91506159c2836141ab565b9250828210156159d5576159d46158c7565b5b828203905092915050565b7f4e487b7100000000000000000000000000000000000000000000000000000000600052603260045260246000fd5b60006080820190508181036000830152615a29818761552c565b90508181036020830152615a3d81866155ea565b90508181036040830152615a5181856156ea565b9050615a606060830184614a02565b95945050505050565b7f53616665436173743a2076616c756520646f65736e27742066697420696e203260008201527f3234206269747300000000000000000000000000000000000000000000000000602082015250565b6000615ac5602783614536565b9150615ad082615a69565b604082019050919050565b60006020820190508181036000830152615af481615ab8565b9050919050565b7f53616665436173743a2076616c756520646f65736e27742066697420696e203360008201527f3220626974730000000000000000000000000000000000000000000000000000602082015250565b6000615b57602683614536565b9150615b6282615afb565b604082019050919050565b60006020820190508181036000830152615b8681615b4a565b9050919050565b7f476f7665726e6f723a20766f7465206e6f742063757272656e746c792061637460008201527f6976650000000000000000000000000000000000000000000000000000000000602082015250565b6000615be9602383614536565b9150615bf482615b8d565b604082019050919050565b60006020820190508181036000830152615c1881615bdc565b9050919050565b6000608082019050615c3460008301876141b5565b615c4160208301866152c9565b615c4e60408301856141b5565b8181036060830152615c60818461457a565b905095945050505050565b600082825260208201905092915050565b6000615c8782615674565b615c918185615c6b565b9350615ca1818560208601614547565b615caa816142ae565b840191505092915050565b600060a082019050615cca60008301886141b5565b615cd760208301876152c9565b615ce460408301866141b5565b8181036060830152615cf6818561457a565b90508181036080830152615d0a8184615c7c565b90509695505050505050565b7f476f7665726e6f72566f74657351756f72756d4672616374696f6e3a2071756f60008201527f72756d4e756d657261746f72206f7665722071756f72756d44656e6f6d696e6160208201527f746f720000000000000000000000000000000000000000000000000000000000604082015250565b6000615d98604383614536565b9150615da382615d16565b606082019050919050565b60006020820190508181036000830152615dc781615d8b565b9050919050565b6000615dd9826141ab565b91507fffffffffffffffffffffffffffffffffffffffffffffffffffffffffffffffff821415615e0c57615e0b6158c7565b5b600182019050919050565b615e2081614175565b8114615e2b57600080fd5b50565b600081519050615e3d81615e17565b92915050565b600060208284031215615e5957615e586140e6565b5b6000615e6784828501615e2e565b91505092915050565b7f436865636b706f696e74733a20626c6f636b206e6f7420796574206d696e6564600082015250565b6000615ea6602083614536565b9150615eb182615e70565b602082019050919050565b60006020820190508181036000830152615ed581615e99565b9050919050565b7f476f7665726e6f723a2070726f706f73657220766f7465732062656c6f77207060008201527f726f706f73616c207468726573686f6c64000000000000000000000000000000602082015250565b6000615f38603183614536565b9150615f4382615edc565b604082019050919050565b60006020820190508181036000830152615f6781615f2b565b9050919050565b7f476f7665726e6f723a20696e76616c69642070726f706f73616c206c656e677460008201527f6800000000000000000000000000000000000000000000000000000000000000602082015250565b6000615fca602183614536565b9150615fd582615f6e565b604082019050919050565b60006020820190508181036000830152615ff981615fbd565b9050919050565b7f476f7665726e6f723a20656d7074792070726f706f73616c0000000000000000600082015250565b6000616036601883614536565b915061604182616000565b602082019050919050565b6000602082019050818103600083015261606581616029565b9050919050565b7f476f7665726e6f723a2070726f706f73616c20616c726561647920657869737460008201527f7300000000000000000000000000000000000000000000000000000000000000602082015250565b60006160c8602183614536565b91506160d38261606c565b604082019050919050565b600060208201905081810360008301526160f7816160bb565b9050919050565b600067ffffffffffffffff82169050919050565b600061611d826160fe565b9150616128836160fe565b92508267ffffffffffffffff03821115616145576161446158c7565b5b828201905092915050565b600081519050919050565b600082825260208201905092915050565b6000819050602082019050919050565b600082825260208201905092915050565b60006161988261452b565b6161a2818561617c565b93506161b2818560208601614547565b6161bb816142ae565b840191505092915050565b60006161d2838361618d565b905092915050565b6000602082019050919050565b60006161f282616150565b6161fc818561615b565b93508360208202850161620e8561616c565b8060005b8581101561624a578484038952815161622b85826161c6565b9450616236836161da565b925060208a01995050600181019050616212565b50829750879550505050505092915050565b600061627761627261626d846160fe565b615206565b6141ab565b9050919050565b6162878161625c565b82525050565b6000610120820190506162a3600083018c6141b5565b6162b0602083018b615105565b81810360408301526162c2818a61552c565b905081810360608301526162d681896155ea565b905081810360808301526162ea81886161e7565b905081810360a08301526162fe81876156ea565b905061630d60c083018661627e565b61631a60e083018561627e565b81810361010083015261632d818461457a565b90509a9950505050505050505050565b60006040820190506163526000830185615105565b61635f60208301846141b5565b9392505050565b600060408201905061637b6000830185615105565b6163886020830184615105565b9392505050565b7f476f7665726e6f7253657474696e67733a20766f74696e6720706572696f642060008201527f746f6f206c6f7700000000000000000000000000000000000000000000000000602082015250565b60006163eb602783614536565b91506163f68261638f565b604082019050919050565b6000602082019050818103600083015261641a816163de565b9050919050565b600061642c826141ab565b9150616437836141ab565b9250817fffffffffffffffffffffffffffffffffffffffffffffffffffffffffffffffff04831182151516156164705761646f6158c7565b5b828202905092915050565b7f4e487b7100000000000000000000000000000000000000000000000000000000600052601260045260246000fd5b60006164b5826141ab565b91506164c0836141ab565b9250826164d0576164cf61647b565b5b828204905092915050565b7f436865636b706f696e743a20696e76616c6964206b6579000000000000000000600082015250565b6000616511601783614536565b915061651c826164db565b602082019050919050565b6000602082019050818103600083015261654081616504565b9050919050565b600081905092915050565b7f1901000000000000000000000000000000000000000000000000000000000000600082015250565b6000616588600283616547565b915061659382616552565b600282019050919050565b6000819050919050565b6165b96165b4826143ea565b61659e565b82525050565b60006165ca8261657b565b91506165d682856165a8565b6020820191506165e682846165a8565b6020820191508190509392505050565b600060808201905061660b6000830187614a02565b61661860208301866152c9565b6166256040830185614a02565b6166326060830184614a02565b95945050505050565b7f45434453413a20696e76616c6964207369676e61747572650000000000000000600082015250565b6000616671601883614536565b915061667c8261663b565b602082019050919050565b600060208201905081810360008301526166a081616664565b9050919050565b7f45434453413a20696e76616c6964207369676e6174757265206c656e67746800600082015250565b60006166dd601f83614536565b91506166e8826166a7565b602082019050919050565b6000602082019050818103600083015261670c816166d0565b9050919050565b7f45434453413a20696e76616c6964207369676e6174757265202773272076616c60008201527f7565000000000000000000000000000000000000000000000000000000000000602082015250565b600061676f602283614536565b915061677a82616713565b604082019050919050565b6000602082019050818103600083015261679e81616762565b9050919050565b7f476f7665726e6f72566f74696e6753696d706c653a20766f746520616c72656160008201527f6479206361737400000000000000000000000000000000000000000000000000602082015250565b6000616801602783614536565b915061680c826167a5565b604082019050919050565b60006020820190508181036000830152616830816167f4565b9050919050565b7f476f7665726e6f72566f74696e6753696d706c653a20696e76616c696420766160008201527f6c756520666f7220656e756d20566f7465547970650000000000000000000000602082015250565b6000616893603583614536565b915061689e82616837565b604082019050919050565b600060208201905081810360008301526168c281616886565b9050919050565b7f476f7665726e6f723a20756e6b6e6f776e2070726f706f73616c206964000000600082015250565b60006168ff601d83614536565b915061690a826168c9565b602082019050919050565b6000602082019050818103600083015261692e816168f2565b9050919050565b7f53616665436173743a2076616c756520646f65736e27742066697420696e203660008201527f3420626974730000000000000000000000000000000000000000000000000000602082015250565b6000616991602683614536565b915061699c82616935565b604082019050919050565b600060208201905081810360008301526169c081616984565b9050919050565b600060a0820190506169dc6000830188614a02565b6169e96020830187614a02565b6169f66040830186614a02565b616a0360608301856141b5565b616a106080830184615105565b969550505050505056fe476f7665726e6f723a2072656c617920726576657274656420776974686f7574206d657373616765a2646970667358221220dc2f3a82f9d15b4349df1cd32427457aefb9214bc98006a7ce51f3e3f2defcfa64736f6c63430008080033",
  "linkReferences": {},
  "deployedLinkReferences": {}
}